{
  "_format": "hh-sol-artifact-1",
  "contractName": "LandRegistryBackendHash",
  "sourceName": "contracts/LandRegistry.sol",
  "abi": [
    {
      "inputs": [],
      "stateMutability": "nonpayable",
      "type": "constructor"
    },
    {
      "inputs": [],
      "name": "AccessControlBadConfirmation",
      "type": "error"
    },
    {
      "inputs": [
        {
          "internalType": "address",
          "name": "account",
          "type": "address"
        },
        {
          "internalType": "bytes32",
          "name": "neededRole",
          "type": "bytes32"
        }
      ],
      "name": "AccessControlUnauthorizedAccount",
      "type": "error"
    },
    {
      "inputs": [],
      "name": "ReentrancyGuardReentrantCall",
      "type": "error"
    },
    {
      "anonymous": false,
      "inputs": [
        {
          "indexed": true,
          "internalType": "uint256",
          "name": "landId",
          "type": "uint256"
        },
        {
          "indexed": true,
          "internalType": "address",
          "name": "owner",
          "type": "address"
        },
        {
          "indexed": false,
          "internalType": "bytes32",
          "name": "landHash",
          "type": "bytes32"
        }
      ],
      "name": "LandRegistered",
      "type": "event"
    },
    {
      "anonymous": false,
      "inputs": [
        {
          "indexed": true,
          "internalType": "uint256",
          "name": "landId",
          "type": "uint256"
        },
        {
          "indexed": true,
          "internalType": "address",
          "name": "approver",
          "type": "address"
        }
      ],
      "name": "LandVerified",
      "type": "event"
    },
    {
      "anonymous": false,
      "inputs": [
        {
          "indexed": true,
          "internalType": "uint256",
          "name": "landId",
          "type": "uint256"
        },
        {
          "indexed": true,
          "internalType": "address",
          "name": "oldOwner",
          "type": "address"
        },
        {
          "indexed": true,
          "internalType": "address",
          "name": "newOwner",
          "type": "address"
        }
      ],
      "name": "OwnershipTransferred",
      "type": "event"
    },
    {
      "anonymous": false,
      "inputs": [
        {
          "indexed": true,
          "internalType": "uint256",
          "name": "requestId",
          "type": "uint256"
        },
        {
          "indexed": true,
          "internalType": "address",
          "name": "approver",
          "type": "address"
        }
      ],
      "name": "RegistrationApproved",
      "type": "event"
    },
    {
      "anonymous": false,
      "inputs": [
        {
          "indexed": true,
          "internalType": "uint256",
          "name": "requestId",
          "type": "uint256"
        },
        {
          "indexed": true,
          "internalType": "address",
          "name": "requester",
          "type": "address"
        },
        {
          "indexed": false,
          "internalType": "bytes32",
          "name": "landHash",
          "type": "bytes32"
        }
      ],
      "name": "RegistrationRequested",
      "type": "event"
    },
    {
      "anonymous": false,
      "inputs": [
        {
          "indexed": true,
          "internalType": "bytes32",
          "name": "role",
          "type": "bytes32"
        },
        {
          "indexed": true,
          "internalType": "bytes32",
          "name": "previousAdminRole",
          "type": "bytes32"
        },
        {
          "indexed": true,
          "internalType": "bytes32",
          "name": "newAdminRole",
          "type": "bytes32"
        }
      ],
      "name": "RoleAdminChanged",
      "type": "event"
    },
    {
      "anonymous": false,
      "inputs": [
        {
          "indexed": true,
          "internalType": "bytes32",
          "name": "role",
          "type": "bytes32"
        },
        {
          "indexed": true,
          "internalType": "address",
          "name": "account",
          "type": "address"
        },
        {
          "indexed": true,
          "internalType": "address",
          "name": "sender",
          "type": "address"
        }
      ],
      "name": "RoleGranted",
      "type": "event"
    },
    {
      "anonymous": false,
      "inputs": [
        {
          "indexed": true,
          "internalType": "bytes32",
          "name": "role",
          "type": "bytes32"
        },
        {
          "indexed": true,
          "internalType": "address",
          "name": "account",
          "type": "address"
        },
        {
          "indexed": true,
          "internalType": "address",
          "name": "sender",
          "type": "address"
        }
      ],
      "name": "RoleRevoked",
      "type": "event"
    },
    {
      "anonymous": false,
      "inputs": [
        {
          "indexed": true,
          "internalType": "uint256",
          "name": "landId",
          "type": "uint256"
        },
        {
          "indexed": true,
          "internalType": "address",
          "name": "approver",
          "type": "address"
        }
      ],
      "name": "TransferApproved",
      "type": "event"
    },
    {
      "anonymous": false,
      "inputs": [
        {
          "indexed": true,
          "internalType": "uint256",
          "name": "landId",
          "type": "uint256"
        },
        {
          "indexed": true,
          "internalType": "address",
          "name": "from",
          "type": "address"
        },
        {
          "indexed": true,
          "internalType": "address",
          "name": "to",
          "type": "address"
        }
      ],
      "name": "TransferInitiated",
      "type": "event"
    },
    {
      "inputs": [],
      "name": "DEFAULT_ADMIN_ROLE",
      "outputs": [
        {
          "internalType": "bytes32",
          "name": "",
          "type": "bytes32"
        }
      ],
      "stateMutability": "view",
      "type": "function"
    },
    {
      "inputs": [],
      "name": "LAND_OFFICER_ROLE",
      "outputs": [
        {
          "internalType": "bytes32",
          "name": "",
          "type": "bytes32"
        }
      ],
      "stateMutability": "view",
      "type": "function"
    },
    {
      "inputs": [
        {
          "internalType": "address",
          "name": "account",
          "type": "address"
        }
      ],
      "name": "addLandOfficer",
      "outputs": [],
      "stateMutability": "nonpayable",
      "type": "function"
    },
    {
      "inputs": [
        {
          "internalType": "uint256",
          "name": "requestId",
          "type": "uint256"
        }
      ],
      "name": "approveRegistrationRequest",
      "outputs": [],
      "stateMutability": "nonpayable",
      "type": "function"
    },
    {
      "inputs": [
        {
          "internalType": "uint256",
          "name": "landId",
          "type": "uint256"
        }
      ],
      "name": "approveTransfer",
      "outputs": [],
      "stateMutability": "nonpayable",
      "type": "function"
    },
    {
      "inputs": [
        {
          "internalType": "uint256",
          "name": "landId",
          "type": "uint256"
        }
      ],
      "name": "finalizeTransfer",
      "outputs": [],
      "stateMutability": "nonpayable",
      "type": "function"
    },
    {
      "inputs": [
        {
          "internalType": "uint256",
          "name": "landId",
          "type": "uint256"
        }
      ],
      "name": "getLand",
      "outputs": [
        {
          "internalType": "address",
          "name": "owner",
          "type": "address"
        },
        {
          "internalType": "bool",
          "name": "isVerified",
          "type": "bool"
        },
        {
          "internalType": "bytes32",
          "name": "landHash",
          "type": "bytes32"
        }
      ],
      "stateMutability": "view",
      "type": "function"
    },
    {
      "inputs": [
        {
          "internalType": "uint256",
          "name": "landId",
          "type": "uint256"
        }
      ],
      "name": "getOwnershipHistory",
      "outputs": [
        {
          "internalType": "address[]",
          "name": "",
          "type": "address[]"
        }
      ],
      "stateMutability": "view",
      "type": "function"
    },
    {
      "inputs": [
        {
          "internalType": "bytes32",
          "name": "role",
          "type": "bytes32"
        }
      ],
      "name": "getRoleAdmin",
      "outputs": [
        {
          "internalType": "bytes32",
          "name": "",
          "type": "bytes32"
        }
      ],
      "stateMutability": "view",
      "type": "function"
    },
    {
      "inputs": [
        {
          "internalType": "bytes32",
          "name": "role",
          "type": "bytes32"
        },
        {
          "internalType": "address",
          "name": "account",
          "type": "address"
        }
      ],
      "name": "grantRole",
      "outputs": [],
      "stateMutability": "nonpayable",
      "type": "function"
    },
    {
      "inputs": [
        {
          "internalType": "bytes32",
          "name": "role",
          "type": "bytes32"
        },
        {
          "internalType": "address",
          "name": "account",
          "type": "address"
        }
      ],
      "name": "hasRole",
      "outputs": [
        {
          "internalType": "bool",
          "name": "",
          "type": "bool"
        }
      ],
      "stateMutability": "view",
      "type": "function"
    },
    {
      "inputs": [
        {
          "internalType": "uint256",
          "name": "landId",
          "type": "uint256"
        },
        {
          "internalType": "address",
          "name": "to",
          "type": "address"
        }
      ],
      "name": "initiateTransfer",
      "outputs": [],
      "stateMutability": "nonpayable",
      "type": "function"
    },
    {
      "inputs": [
        {
          "internalType": "uint256",
          "name": "",
          "type": "uint256"
        }
      ],
      "name": "lands",
      "outputs": [
        {
          "internalType": "uint256",
          "name": "landId",
          "type": "uint256"
        },
        {
          "internalType": "address",
          "name": "owner",
          "type": "address"
        },
        {
          "internalType": "bytes32",
          "name": "landHash",
          "type": "bytes32"
        },
        {
          "internalType": "bool",
          "name": "isVerified",
          "type": "bool"
        }
      ],
      "stateMutability": "view",
      "type": "function"
    },
    {
      "inputs": [
        {
          "internalType": "uint256",
          "name": "",
          "type": "uint256"
        }
      ],
      "name": "registrationRequests",
      "outputs": [
        {
          "internalType": "bytes32",
          "name": "landHash",
          "type": "bytes32"
        },
        {
          "internalType": "address",
          "name": "requester",
          "type": "address"
        },
        {
          "internalType": "bool",
          "name": "approved",
          "type": "bool"
        }
      ],
      "stateMutability": "view",
      "type": "function"
    },
    {
      "inputs": [
        {
          "internalType": "bytes32",
          "name": "role",
          "type": "bytes32"
        },
        {
          "internalType": "address",
          "name": "callerConfirmation",
          "type": "address"
        }
      ],
      "name": "renounceRole",
      "outputs": [],
      "stateMutability": "nonpayable",
      "type": "function"
    },
    {
      "inputs": [
        {
          "internalType": "bytes32",
          "name": "role",
          "type": "bytes32"
        },
        {
          "internalType": "address",
          "name": "account",
          "type": "address"
        }
      ],
      "name": "revokeRole",
      "outputs": [],
      "stateMutability": "nonpayable",
      "type": "function"
    },
    {
      "inputs": [
        {
          "internalType": "bytes32",
          "name": "_landHash",
          "type": "bytes32"
        }
      ],
      "name": "submitRegistrationRequest",
      "outputs": [],
      "stateMutability": "nonpayable",
      "type": "function"
    },
    {
      "inputs": [
        {
          "internalType": "bytes4",
          "name": "interfaceId",
          "type": "bytes4"
        }
      ],
      "name": "supportsInterface",
      "outputs": [
        {
          "internalType": "bool",
          "name": "",
          "type": "bool"
        }
      ],
      "stateMutability": "view",
      "type": "function"
    },
    {
      "inputs": [
        {
          "internalType": "uint256",
          "name": "",
          "type": "uint256"
        }
      ],
      "name": "transfers",
      "outputs": [
        {
          "internalType": "uint256",
          "name": "landId",
          "type": "uint256"
        },
        {
          "internalType": "address",
          "name": "from",
          "type": "address"
        },
        {
          "internalType": "address",
          "name": "to",
          "type": "address"
        },
        {
          "internalType": "bool",
          "name": "approved",
          "type": "bool"
        }
      ],
      "stateMutability": "view",
      "type": "function"
    },
    {
      "inputs": [
        {
          "internalType": "uint256",
          "name": "landId",
          "type": "uint256"
        },
        {
          "internalType": "bytes32",
          "name": "inputHash",
          "type": "bytes32"
        }
      ],
      "name": "verifyCertificate",
      "outputs": [
        {
          "internalType": "bool",
          "name": "",
          "type": "bool"
        }
      ],
      "stateMutability": "view",
      "type": "function"
    },
    {
      "inputs": [
        {
          "internalType": "uint256",
          "name": "landId",
          "type": "uint256"
        }
      ],
      "name": "verifyLand",
      "outputs": [],
      "stateMutability": "nonpayable",
      "type": "function"
    }
  ],
  "bytecode": "0x6080604052600160025560016003553480156200001b57600080fd5b5060018081905550620000386000801b336200003f60201b60201c565b50620001b4565b60006200005383836200014260201b60201c565b6200013757600160008085815260200190815260200160002060000160008473ffffffffffffffffffffffffffffffffffffffff1673ffffffffffffffffffffffffffffffffffffffff16815260200190815260200160002060006101000a81548160ff021916908315150217905550620000d3620001ac60201b60201c565b73ffffffffffffffffffffffffffffffffffffffff168273ffffffffffffffffffffffffffffffffffffffff16847f2f8788117e7eff1d82e926ec794901d17c78024a50270940304540a733656f0d60405160405180910390a4600190506200013c565b600090505b92915050565b600080600084815260200190815260200160002060000160008373ffffffffffffffffffffffffffffffffffffffff1673ffffffffffffffffffffffffffffffffffffffff16815260200190815260200160002060009054906101000a900460ff16905092915050565b600033905090565b61294880620001c46000396000f3fe608060405234801561001057600080fd5b50600436106101375760003560e01c80639615fd55116100b8578063cacca4a01161007c578063cacca4a014610361578063d547741f1461037d578063e261f1e514610399578063f02dd53f146103cc578063f1dbaccb146103fe578063f9c43bdf1461042e57610137565b80639615fd55146102bd5780639de1322e146102db578063a217fddf146102f7578063c3b451a214610315578063c468d6881461034557610137565b80633f5658d3116100ff5780633f5658d3146101f05780636b3c6fd61461020c57806391d148541461023e5780639377d7111461026e578063948911e4146102a157610137565b806301ffc9a71461013c578063248a9ca31461016c5780632f2ff15d1461019c57806336568abe146101b85780633a371b8e146101d4575b600080fd5b61015660048036038101906101519190611df3565b61044a565b6040516101639190611e3b565b60405180910390f35b61018660048036038101906101819190611e8c565b6104c4565b6040516101939190611ec8565b60405180910390f35b6101b660048036038101906101b19190611f41565b6104e3565b005b6101d260048036038101906101cd9190611f41565b610505565b005b6101ee60048036038101906101e99190611fb7565b610580565b005b61020a60048036038101906102059190611ff7565b6108cc565b005b61022660048036038101906102219190612024565b610976565b60405161023593929190612060565b60405180910390f35b61025860048036038101906102539190611f41565b6109cd565b6040516102659190611e3b565b60405180910390f35b61028860048036038101906102839190612024565b610a37565b60405161029894939291906120a6565b60405180910390f35b6102bb60048036038101906102b69190612024565b610ab4565b005b6102c5610eaf565b6040516102d29190611ec8565b60405180910390f35b6102f560048036038101906102f09190612024565b610ed3565b005b6102ff61120b565b60405161030c9190611ec8565b60405180910390f35b61032f600480360381019061032a91906120eb565b611212565b60405161033c9190611e3b565b60405180910390f35b61035f600480360381019061035a9190611e8c565b61128d565b005b61037b60048036038101906103769190612024565b6113ff565b005b61039760048036038101906103929190611f41565b61155d565b005b6103b360048036038101906103ae9190612024565b61157f565b6040516103c3949392919061212b565b60405180910390f35b6103e660048036038101906103e19190612024565b6115dc565b6040516103f593929190612170565b60405180910390f35b61041860048036038101906104139190612024565b61178b565b6040516104259190612265565b60405180910390f35b61044860048036038101906104439190612024565b611888565b005b60007f7965db0b000000000000000000000000000000000000000000000000000000007bffffffffffffffffffffffffffffffffffffffffffffffffffffffff1916827bffffffffffffffffffffffffffffffffffffffffffffffffffffffff191614806104bd57506104bc826119e6565b5b9050919050565b6000806000838152602001908152602001600020600101549050919050565b6104ec826104c4565b6104f581611a50565b6104ff8383611a64565b50505050565b61050d611b55565b73ffffffffffffffffffffffffffffffffffffffff168173ffffffffffffffffffffffffffffffffffffffff1614610571576040517f6697b23200000000000000000000000000000000000000000000000000000000815260040160405180910390fd5b61057b8282611b5d565b505050565b60006004600084815260200190815260200160002060000154036105d9576040517f08c379a00000000000000000000000000000000000000000000000000000000081526004016105d0906122e4565b60405180910390fd5b3373ffffffffffffffffffffffffffffffffffffffff166004600084815260200190815260200160002060010160009054906101000a900473ffffffffffffffffffffffffffffffffffffffff1673ffffffffffffffffffffffffffffffffffffffff161461067d576040517f08c379a000000000000000000000000000000000000000000000000000000000815260040161067490612350565b60405180910390fd5b600073ffffffffffffffffffffffffffffffffffffffff168173ffffffffffffffffffffffffffffffffffffffff16036106ec576040517f08c379a00000000000000000000000000000000000000000000000000000000081526004016106e3906123bc565b60405180910390fd5b6004600083815260200190815260200160002060030160009054906101000a900460ff1661074f576040517f08c379a000000000000000000000000000000000000000000000000000000000815260040161074690612428565b60405180910390fd5b60405180608001604052808381526020013373ffffffffffffffffffffffffffffffffffffffff1681526020018273ffffffffffffffffffffffffffffffffffffffff16815260200160001515815250600560008481526020019081526020016000206000820151816000015560208201518160010160006101000a81548173ffffffffffffffffffffffffffffffffffffffff021916908373ffffffffffffffffffffffffffffffffffffffff16021790555060408201518160020160006101000a81548173ffffffffffffffffffffffffffffffffffffffff021916908373ffffffffffffffffffffffffffffffffffffffff16021790555060608201518160020160146101000a81548160ff0219169083151502179055509050508073ffffffffffffffffffffffffffffffffffffffff163373ffffffffffffffffffffffffffffffffffffffff16837f8ee650c032c1b70a68df94b54adbfb34be569f01a8fe0f25a25ad89d2b699f0b60405160405180910390a45050565b6000801b6108d981611a50565b600073ffffffffffffffffffffffffffffffffffffffff168273ffffffffffffffffffffffffffffffffffffffff1603610948576040517f08c379a000000000000000000000000000000000000000000000000000000000815260040161093f90612494565b60405180910390fd5b6109727ff437e8ef02d0ea3cf8d6f9ddef31cf7e63bc17bb349e40421901ecde35f4b6bc836104e3565b5050565b60066020528060005260406000206000915090508060000154908060010160009054906101000a900473ffffffffffffffffffffffffffffffffffffffff16908060010160149054906101000a900460ff16905083565b600080600084815260200190815260200160002060000160008373ffffffffffffffffffffffffffffffffffffffff1673ffffffffffffffffffffffffffffffffffffffff16815260200190815260200160002060009054906101000a900460ff16905092915050565b60056020528060005260406000206000915090508060000154908060010160009054906101000a900473ffffffffffffffffffffffffffffffffffffffff16908060020160009054906101000a900473ffffffffffffffffffffffffffffffffffffffff16908060020160149054906101000a900460ff16905084565b7ff437e8ef02d0ea3cf8d6f9ddef31cf7e63bc17bb349e40421901ecde35f4b6bc610ade81611a50565b6000600660008481526020019081526020016000209050600073ffffffffffffffffffffffffffffffffffffffff168160010160009054906101000a900473ffffffffffffffffffffffffffffffffffffffff1673ffffffffffffffffffffffffffffffffffffffff1603610b88576040517f08c379a0000000000000000000000000000000000000000000000000000000008152600401610b7f90612500565b60405180910390fd5b8060010160149054906101000a900460ff1615610bda576040517f08c379a0000000000000000000000000000000000000000000000000000000008152600401610bd19061256c565b60405180910390fd5b60018160010160146101000a81548160ff0219169083151502179055506000600254905060026000815480929190610c11906125bb565b91905055506000600167ffffffffffffffff811115610c3357610c32612603565b5b604051908082528060200260200182016040528015610c615781602001602082028036833780820191505090505b5090508260010160009054906101000a900473ffffffffffffffffffffffffffffffffffffffff1681600081518110610c9d57610c9c612632565b5b602002602001019073ffffffffffffffffffffffffffffffffffffffff16908173ffffffffffffffffffffffffffffffffffffffff16815250506040518060a001604052808381526020018460010160009054906101000a900473ffffffffffffffffffffffffffffffffffffffff1673ffffffffffffffffffffffffffffffffffffffff1681526020018460000154815260200160001515815260200182815250600460008481526020019081526020016000206000820151816000015560208201518160010160006101000a81548173ffffffffffffffffffffffffffffffffffffffff021916908373ffffffffffffffffffffffffffffffffffffffff1602179055506040820151816002015560608201518160030160006101000a81548160ff0219169083151502179055506080820151816004019080519060200190610de9929190611cef565b509050508260010160009054906101000a900473ffffffffffffffffffffffffffffffffffffffff1673ffffffffffffffffffffffffffffffffffffffff16827f97042602077e053351010f6475da4ac01851ae4289da5f320f93b3c60a34551c8560000154604051610e5c9190611ec8565b60405180910390a33373ffffffffffffffffffffffffffffffffffffffff16857f5bb7b658dde929334c584f284e7cdfd4d5df4b5b995d90ba9aadaaaa5fdf0abb60405160405180910390a35050505050565b7ff437e8ef02d0ea3cf8d6f9ddef31cf7e63bc17bb349e40421901ecde35f4b6bc81565b610edb611c4f565b6000600560008381526020019081526020016000206000015403610f34576040517f08c379a0000000000000000000000000000000000000000000000000000000008152600401610f2b906126ad565b60405180910390fd5b6005600082815260200190815260200160002060020160149054906101000a900460ff16610f97576040517f08c379a0000000000000000000000000000000000000000000000000000000008152600401610f8e90612719565b60405180910390fd5b6005600082815260200190815260200160002060020160009054906101000a900473ffffffffffffffffffffffffffffffffffffffff1673ffffffffffffffffffffffffffffffffffffffff163373ffffffffffffffffffffffffffffffffffffffff161461103b576040517f08c379a000000000000000000000000000000000000000000000000000000000815260040161103290612785565b60405180910390fd5b600060046000838152602001908152602001600020905060008160010160009054906101000a900473ffffffffffffffffffffffffffffffffffffffff169050338260010160006101000a81548173ffffffffffffffffffffffffffffffffffffffff021916908373ffffffffffffffffffffffffffffffffffffffff16021790555081600401339080600181540180825580915050600190039060005260206000200160009091909190916101000a81548173ffffffffffffffffffffffffffffffffffffffff021916908373ffffffffffffffffffffffffffffffffffffffff1602179055503373ffffffffffffffffffffffffffffffffffffffff168173ffffffffffffffffffffffffffffffffffffffff16847f16b85f49bf01212961345d3016c9a531894accf62eb7680f2045d79185cc0ec060405160405180910390a4600560008481526020019081526020016000206000808201600090556001820160006101000a81549073ffffffffffffffffffffffffffffffffffffffff02191690556002820160006101000a81549073ffffffffffffffffffffffffffffffffffffffff02191690556002820160146101000a81549060ff021916905550505050611208611c95565b50565b6000801b81565b60008060046000858152602001908152602001600020600001540361126c576040517f08c379a0000000000000000000000000000000000000000000000000000000008152600401611263906122e4565b60405180910390fd5b81600460008581526020019081526020016000206002015414905092915050565b6000801b81036112d2576040517f08c379a00000000000000000000000000000000000000000000000000000000081526004016112c9906127f1565b60405180910390fd5b60006003549050600360008154809291906112ec906125bb565b919050555060405180606001604052808381526020013373ffffffffffffffffffffffffffffffffffffffff16815260200160001515815250600660008381526020019081526020016000206000820151816000015560208201518160010160006101000a81548173ffffffffffffffffffffffffffffffffffffffff021916908373ffffffffffffffffffffffffffffffffffffffff16021790555060408201518160010160146101000a81548160ff0219169083151502179055509050503373ffffffffffffffffffffffffffffffffffffffff16817ffc6dcf37c3015c322ae61bee23e788b027b1c08259cf4385196cf5657c11004d846040516113f39190611ec8565b60405180910390a35050565b7ff437e8ef02d0ea3cf8d6f9ddef31cf7e63bc17bb349e40421901ecde35f4b6bc61142981611a50565b6000600560008481526020019081526020016000206000015403611482576040517f08c379a00000000000000000000000000000000000000000000000000000000081526004016114799061285d565b60405180910390fd5b6005600083815260200190815260200160002060020160149054906101000a900460ff16156114e6576040517f08c379a00000000000000000000000000000000000000000000000000000000081526004016114dd9061256c565b60405180910390fd5b60016005600084815260200190815260200160002060020160146101000a81548160ff0219169083151502179055503373ffffffffffffffffffffffffffffffffffffffff16827fa4269914b1afdc8f7e4c3aa6794f0de6e37f00884fb97ea9288a1d68ba7de67b60405160405180910390a35050565b611566826104c4565b61156f81611a50565b6115798383611b5d565b50505050565b60046020528060005260406000206000915090508060000154908060010160009054906101000a900473ffffffffffffffffffffffffffffffffffffffff16908060020154908060030160009054906101000a900460ff16905084565b600080600080600460008681526020019081526020016000206000015403611639576040517f08c379a0000000000000000000000000000000000000000000000000000000008152600401611630906122e4565b60405180910390fd5b6000600460008681526020019081526020016000206040518060a0016040529081600082015481526020016001820160009054906101000a900473ffffffffffffffffffffffffffffffffffffffff1673ffffffffffffffffffffffffffffffffffffffff1673ffffffffffffffffffffffffffffffffffffffff168152602001600282015481526020016003820160009054906101000a900460ff161515151581526020016004820180548060200260200160405190810160405280929190818152602001828054801561176357602002820191906000526020600020905b8160009054906101000a900473ffffffffffffffffffffffffffffffffffffffff1673ffffffffffffffffffffffffffffffffffffffff1681526020019060010190808311611719575b5050505050815250509050806020015181606001518260400151935093509350509193909250565b606060006004600084815260200190815260200160002060000154036117e6576040517f08c379a00000000000000000000000000000000000000000000000000000000081526004016117dd906122e4565b60405180910390fd5b6004600083815260200190815260200160002060040180548060200260200160405190810160405280929190818152602001828054801561187c57602002820191906000526020600020905b8160009054906101000a900473ffffffffffffffffffffffffffffffffffffffff1673ffffffffffffffffffffffffffffffffffffffff1681526020019060010190808311611832575b50505050509050919050565b7ff437e8ef02d0ea3cf8d6f9ddef31cf7e63bc17bb349e40421901ecde35f4b6bc6118b281611a50565b600060046000848152602001908152602001600020600001540361190b576040517f08c379a0000000000000000000000000000000000000000000000000000000008152600401611902906122e4565b60405180910390fd5b6004600083815260200190815260200160002060030160009054906101000a900460ff161561196f576040517f08c379a0000000000000000000000000000000000000000000000000000000008152600401611966906128c9565b60405180910390fd5b60016004600084815260200190815260200160002060030160006101000a81548160ff0219169083151502179055503373ffffffffffffffffffffffffffffffffffffffff16827ffb9625d8f3292b4f2c77920987a97b46155b934995873c85e64429df037b005b60405160405180910390a35050565b60007f01ffc9a7000000000000000000000000000000000000000000000000000000007bffffffffffffffffffffffffffffffffffffffffffffffffffffffff1916827bffffffffffffffffffffffffffffffffffffffffffffffffffffffff1916149050919050565b611a6181611a5c611b55565b611c9e565b50565b6000611a7083836109cd565b611b4a57600160008085815260200190815260200160002060000160008473ffffffffffffffffffffffffffffffffffffffff1673ffffffffffffffffffffffffffffffffffffffff16815260200190815260200160002060006101000a81548160ff021916908315150217905550611ae7611b55565b73ffffffffffffffffffffffffffffffffffffffff168273ffffffffffffffffffffffffffffffffffffffff16847f2f8788117e7eff1d82e926ec794901d17c78024a50270940304540a733656f0d60405160405180910390a460019050611b4f565b600090505b92915050565b600033905090565b6000611b6983836109cd565b15611c4457600080600085815260200190815260200160002060000160008473ffffffffffffffffffffffffffffffffffffffff1673ffffffffffffffffffffffffffffffffffffffff16815260200190815260200160002060006101000a81548160ff021916908315150217905550611be1611b55565b73ffffffffffffffffffffffffffffffffffffffff168273ffffffffffffffffffffffffffffffffffffffff16847ff6391f5c32d9c69d2a47ea670b442974b53935d1edc7fd64eb21e047a839171b60405160405180910390a460019050611c49565b600090505b92915050565b600260015403611c8b576040517f3ee5aeb500000000000000000000000000000000000000000000000000000000815260040160405180910390fd5b6002600181905550565b60018081905550565b611ca882826109cd565b611ceb5780826040517fe2517d3f000000000000000000000000000000000000000000000000000000008152600401611ce29291906128e9565b60405180910390fd5b5050565b828054828255906000526020600020908101928215611d68579160200282015b82811115611d675782518260006101000a81548173ffffffffffffffffffffffffffffffffffffffff021916908373ffffffffffffffffffffffffffffffffffffffff16021790555091602001919060010190611d0f565b5b509050611d759190611d79565b5090565b5b80821115611d92576000816000905550600101611d7a565b5090565b600080fd5b60007fffffffff0000000000000000000000000000000000000000000000000000000082169050919050565b611dd081611d9b565b8114611ddb57600080fd5b50565b600081359050611ded81611dc7565b92915050565b600060208284031215611e0957611e08611d96565b5b6000611e1784828501611dde565b91505092915050565b60008115159050919050565b611e3581611e20565b82525050565b6000602082019050611e506000830184611e2c565b92915050565b6000819050919050565b611e6981611e56565b8114611e7457600080fd5b50565b600081359050611e8681611e60565b92915050565b600060208284031215611ea257611ea1611d96565b5b6000611eb084828501611e77565b91505092915050565b611ec281611e56565b82525050565b6000602082019050611edd6000830184611eb9565b92915050565b600073ffffffffffffffffffffffffffffffffffffffff82169050919050565b6000611f0e82611ee3565b9050919050565b611f1e81611f03565b8114611f2957600080fd5b50565b600081359050611f3b81611f15565b92915050565b60008060408385031215611f5857611f57611d96565b5b6000611f6685828601611e77565b9250506020611f7785828601611f2c565b9150509250929050565b6000819050919050565b611f9481611f81565b8114611f9f57600080fd5b50565b600081359050611fb181611f8b565b92915050565b60008060408385031215611fce57611fcd611d96565b5b6000611fdc85828601611fa2565b9250506020611fed85828601611f2c565b9150509250929050565b60006020828403121561200d5761200c611d96565b5b600061201b84828501611f2c565b91505092915050565b60006020828403121561203a57612039611d96565b5b600061204884828501611fa2565b91505092915050565b61205a81611f03565b82525050565b60006060820190506120756000830186611eb9565b6120826020830185612051565b61208f6040830184611e2c565b949350505050565b6120a081611f81565b82525050565b60006080820190506120bb6000830187612097565b6120c86020830186612051565b6120d56040830185612051565b6120e26060830184611e2c565b95945050505050565b6000806040838503121561210257612101611d96565b5b600061211085828601611fa2565b925050602061212185828601611e77565b9150509250929050565b60006080820190506121406000830187612097565b61214d6020830186612051565b61215a6040830185611eb9565b6121676060830184611e2c565b95945050505050565b60006060820190506121856000830186612051565b6121926020830185611e2c565b61219f6040830184611eb9565b949350505050565b600081519050919050565b600082825260208201905092915050565b6000819050602082019050919050565b6121dc81611f03565b82525050565b60006121ee83836121d3565b60208301905092915050565b6000602082019050919050565b6000612212826121a7565b61221c81856121b2565b9350612227836121c3565b8060005b8381101561225857815161223f88826121e2565b975061224a836121fa565b92505060018101905061222b565b5085935050505092915050565b6000602082019050818103600083015261227f8184612207565b905092915050565b600082825260208201905092915050565b7f4c616e6420646f6573206e6f7420657869737400000000000000000000000000600082015250565b60006122ce601383612287565b91506122d982612298565b602082019050919050565b600060208201905081810360008301526122fd816122c1565b9050919050565b7f4e6f7420746865206f776e657200000000000000000000000000000000000000600082015250565b600061233a600d83612287565b915061234582612304565b602082019050919050565b600060208201905081810360008301526123698161232d565b9050919050565b7f496e76616c696420726563697069656e74000000000000000000000000000000600082015250565b60006123a6601183612287565b91506123b182612370565b602082019050919050565b600060208201905081810360008301526123d581612399565b9050919050565b7f4c616e64206e6f74207665726966696564000000000000000000000000000000600082015250565b6000612412601183612287565b915061241d826123dc565b602082019050919050565b6000602082019050818103600083015261244181612405565b9050919050565b7f496e76616c696420616464726573730000000000000000000000000000000000600082015250565b600061247e600f83612287565b915061248982612448565b602082019050919050565b600060208201905081810360008301526124ad81612471565b9050919050565b7f52657175657374206e6f7420666f756e64000000000000000000000000000000600082015250565b60006124ea601183612287565b91506124f5826124b4565b602082019050919050565b60006020820190508181036000830152612519816124dd565b9050919050565b7f416c726561647920617070726f76656400000000000000000000000000000000600082015250565b6000612556601083612287565b915061256182612520565b602082019050919050565b6000602082019050818103600083015261258581612549565b9050919050565b7f4e487b7100000000000000000000000000000000000000000000000000000000600052601160045260246000fd5b60006125c682611f81565b91507fffffffffffffffffffffffffffffffffffffffffffffffffffffffffffffffff82036125f8576125f761258c565b5b600182019050919050565b7f4e487b7100000000000000000000000000000000000000000000000000000000600052604160045260246000fd5b7f4e487b7100000000000000000000000000000000000000000000000000000000600052603260045260246000fd5b7f5472616e73666572206e6f7420696e6974696174656400000000000000000000600082015250565b6000612697601683612287565b91506126a282612661565b602082019050919050565b600060208201905081810360008301526126c68161268a565b9050919050565b7f5472616e73666572206e6f7420617070726f7665640000000000000000000000600082015250565b6000612703601583612287565b915061270e826126cd565b602082019050919050565b60006020820190508181036000830152612732816126f6565b9050919050565b7f4f6e6c7920726563697069656e742063616e2061636365707400000000000000600082015250565b600061276f601983612287565b915061277a82612739565b602082019050919050565b6000602082019050818103600083015261279e81612762565b9050919050565b7f4861736820726571756972656400000000000000000000000000000000000000600082015250565b60006127db600d83612287565b91506127e6826127a5565b602082019050919050565b6000602082019050818103600083015261280a816127ce565b9050919050565b7f5472616e73666572206e6f7420666f756e640000000000000000000000000000600082015250565b6000612847601283612287565b915061285282612811565b602082019050919050565b600060208201905081810360008301526128768161283a565b9050919050565b7f416c726561647920766572696669656400000000000000000000000000000000600082015250565b60006128b3601083612287565b91506128be8261287d565b602082019050919050565b600060208201905081810360008301526128e2816128a6565b9050919050565b60006040820190506128fe6000830185612051565b61290b6020830184611eb9565b939250505056fea2646970667358221220ae6f68ef33a82bf9eb2ba9189eee9e29e566d85ffd9938f67e533e20a13b332764736f6c63430008140033",
  "linkReferences": {},
  "deployedLinkReferences": {}
}